{
  "contractName": "Destructible",
  "abi": [
    {
      "inputs": [],
      "payable": true,
      "stateMutability": "payable",
      "type": "constructor"
    },
    {
      "anonymous": false,
      "inputs": [
        {
          "indexed": true,
          "internalType": "address",
          "name": "_currentOwner",
          "type": "address"
        },
        {
          "indexed": true,
          "internalType": "address",
          "name": "_newOwner",
          "type": "address"
        }
      ],
      "name": "LogOwnershipTransfered",
      "type": "event"
    },
    {
      "constant": true,
      "inputs": [],
      "name": "owner",
      "outputs": [
        {
          "internalType": "address",
          "name": "",
          "type": "address"
        }
      ],
      "payable": false,
      "stateMutability": "view",
      "type": "function"
    },
    {
      "constant": false,
      "inputs": [],
      "name": "destroy",
      "outputs": [],
      "payable": false,
      "stateMutability": "nonpayable",
      "type": "function"
    },
    {
      "constant": false,
      "inputs": [
        {
          "internalType": "address payable",
          "name": "_recipient",
          "type": "address"
        }
      ],
      "name": "destroyAndSend",
      "outputs": [],
      "payable": false,
      "stateMutability": "nonpayable",
      "type": "function"
    }
  ],
  "bytecode": "0x6080604052336000806101000a81548173ffffffffffffffffffffffffffffffffffffffff021916908373ffffffffffffffffffffffffffffffffffffffff16021790555061021c806100536000396000f3fe608060405234801561001057600080fd5b50600436106100415760003560e01c806383197ef0146100465780638da5cb5b14610050578063f5074f411461009a575b600080fd5b61004e6100de565b005b610058610150565b604051808273ffffffffffffffffffffffffffffffffffffffff1673ffffffffffffffffffffffffffffffffffffffff16815260200191505060405180910390f35b6100dc600480360360208110156100b057600080fd5b81019080803573ffffffffffffffffffffffffffffffffffffffff169060200190929190505050610175565b005b6000809054906101000a900473ffffffffffffffffffffffffffffffffffffffff1673ffffffffffffffffffffffffffffffffffffffff163373ffffffffffffffffffffffffffffffffffffffff161461013757600080fd5b3373ffffffffffffffffffffffffffffffffffffffff16ff5b6000809054906101000a900473ffffffffffffffffffffffffffffffffffffffff1681565b6000809054906101000a900473ffffffffffffffffffffffffffffffffffffffff1673ffffffffffffffffffffffffffffffffffffffff163373ffffffffffffffffffffffffffffffffffffffff16146101ce57600080fd5b8073ffffffffffffffffffffffffffffffffffffffff16fffea265627a7a7231582037130429785f88b39fdc20757b5db3a7e7e9039012677031c925dd80aae5e53f64736f6c63430005100032",
  "source": "pragma solidity ^0.5.16;\n\nimport './Ownable.sol';\n\ncontract Destructible is Ownable {\n    \n    constructor() public payable { }\n\n    function destroy() public onlyOwner {\n        selfdestruct(msg.sender);\n    }\n    \n    function destroyAndSend(address payable _recipient) public onlyOwner {\n        selfdestruct(_recipient);\n    }\n}",
  "sourcePath": "/Users/lamdaoletung/src/p2p-lending/smart-contracts/contracts/common/Destructible.sol",
  "compiler": {
    "name": "solc",
    "version": "0.5.16+commit.9c3226ce.Emscripten.clang"
  },
  "schemaVersion": "3.4.12",
  "updatedAt": "2023-02-19T02:03:34.674Z",
  "networkType": "ethereum",
  "devdoc": {
    "methods": {}
  },
  "userdoc": {
    "methods": {}
  }
}