{
  "contractName": "PeerToPeerLending",
  "abi": [
    {
      "inputs": [],
      "payable": false,
      "stateMutability": "nonpayable",
      "type": "constructor"
    },
    {
      "anonymous": false,
      "inputs": [
        {
          "indexed": true,
          "internalType": "address",
          "name": "_address",
          "type": "address"
        },
        {
          "indexed": true,
          "internalType": "bool",
          "name": "active",
          "type": "bool"
        },
        {
          "indexed": true,
          "internalType": "uint256",
          "name": "timestamp",
          "type": "uint256"
        }
      ],
      "name": "LogCreditActiveChanged",
      "type": "event"
    },
    {
      "anonymous": false,
      "inputs": [
        {
          "indexed": true,
          "internalType": "address",
          "name": "_address",
          "type": "address"
        },
        {
          "indexed": true,
          "internalType": "address",
          "name": "_borrower",
          "type": "address"
        },
        {
          "indexed": true,
          "internalType": "uint256",
          "name": "timestamp",
          "type": "uint256"
        }
      ],
      "name": "LogCreditCreated",
      "type": "event"
    },
    {
      "anonymous": false,
      "inputs": [
        {
          "indexed": true,
          "internalType": "address",
          "name": "_address",
          "type": "address"
        },
        {
          "indexed": true,
          "internalType": "enum Credit.State",
          "name": "state",
          "type": "uint8"
        },
        {
          "indexed": true,
          "internalType": "uint256",
          "name": "timestamp",
          "type": "uint256"
        }
      ],
      "name": "LogCreditStateChanged",
      "type": "event"
    },
    {
      "anonymous": false,
      "inputs": [
        {
          "indexed": true,
          "internalType": "address",
          "name": "_currentOwner",
          "type": "address"
        },
        {
          "indexed": true,
          "internalType": "address",
          "name": "_newOwner",
          "type": "address"
        }
      ],
      "name": "LogOwnershipTransfered",
      "type": "event"
    },
    {
      "anonymous": false,
      "inputs": [
        {
          "indexed": true,
          "internalType": "address",
          "name": "_address",
          "type": "address"
        },
        {
          "indexed": false,
          "internalType": "bool",
          "name": "fraudStatus",
          "type": "bool"
        },
        {
          "indexed": false,
          "internalType": "uint256",
          "name": "timestamp",
          "type": "uint256"
        }
      ],
      "name": "LogUserSetFraud",
      "type": "event"
    },
    {
      "constant": true,
      "inputs": [
        {
          "internalType": "uint256",
          "name": "",
          "type": "uint256"
        }
      ],
      "name": "credits",
      "outputs": [
        {
          "internalType": "address",
          "name": "",
          "type": "address"
        }
      ],
      "payable": false,
      "stateMutability": "view",
      "type": "function"
    },
    {
      "constant": false,
      "inputs": [],
      "name": "destroy",
      "outputs": [],
      "payable": false,
      "stateMutability": "nonpayable",
      "type": "function"
    },
    {
      "constant": false,
      "inputs": [
        {
          "internalType": "address payable",
          "name": "_recipient",
          "type": "address"
        }
      ],
      "name": "destroyAndSend",
      "outputs": [],
      "payable": false,
      "stateMutability": "nonpayable",
      "type": "function"
    },
    {
      "constant": true,
      "inputs": [],
      "name": "owner",
      "outputs": [
        {
          "internalType": "address",
          "name": "",
          "type": "address"
        }
      ],
      "payable": false,
      "stateMutability": "view",
      "type": "function"
    },
    {
      "constant": true,
      "inputs": [
        {
          "internalType": "address",
          "name": "",
          "type": "address"
        }
      ],
      "name": "users",
      "outputs": [
        {
          "internalType": "bool",
          "name": "credited",
          "type": "bool"
        },
        {
          "internalType": "address",
          "name": "activeCredit",
          "type": "address"
        },
        {
          "internalType": "bool",
          "name": "fraudStatus",
          "type": "bool"
        }
      ],
      "payable": false,
      "stateMutability": "view",
      "type": "function"
    },
    {
      "constant": false,
      "inputs": [
        {
          "internalType": "uint256",
          "name": "requestedAmount",
          "type": "uint256"
        },
        {
          "internalType": "uint256",
          "name": "repaymentsCount",
          "type": "uint256"
        },
        {
          "internalType": "uint256",
          "name": "interest",
          "type": "uint256"
        },
        {
          "internalType": "bytes32",
          "name": "creditDescription",
          "type": "bytes32"
        }
      ],
      "name": "applyForCredit",
      "outputs": [
        {
          "internalType": "address",
          "name": "_credit",
          "type": "address"
        }
      ],
      "payable": false,
      "stateMutability": "nonpayable",
      "type": "function"
    },
    {
      "constant": true,
      "inputs": [],
      "name": "getCredits",
      "outputs": [
        {
          "internalType": "address[]",
          "name": "",
          "type": "address[]"
        }
      ],
      "payable": false,
      "stateMutability": "view",
      "type": "function"
    },
    {
      "constant": true,
      "inputs": [],
      "name": "getUserCredits",
      "outputs": [
        {
          "internalType": "address[]",
          "name": "",
          "type": "address[]"
        }
      ],
      "payable": false,
      "stateMutability": "view",
      "type": "function"
    },
    {
      "constant": false,
      "inputs": [
        {
          "internalType": "address",
          "name": "_borrower",
          "type": "address"
        }
      ],
      "name": "setFraudStatus",
      "outputs": [
        {
          "internalType": "bool",
          "name": "",
          "type": "bool"
        }
      ],
      "payable": false,
      "stateMutability": "nonpayable",
      "type": "function"
    },
    {
      "constant": false,
      "inputs": [
        {
          "internalType": "contract Credit",
          "name": "_credit",
          "type": "address"
        }
      ],
      "name": "changeCreditState",
      "outputs": [],
      "payable": false,
      "stateMutability": "nonpayable",
      "type": "function"
    },
    {
      "constant": false,
      "inputs": [
        {
          "internalType": "contract Credit",
          "name": "_credit",
          "type": "address"
        },
        {
          "internalType": "enum Credit.State",
          "name": "state",
          "type": "uint8"
        }
      ],
      "name": "changeCreditState",
      "outputs": [],
      "payable": false,
      "stateMutability": "nonpayable",
      "type": "function"
    }
  ],
  "bytecode": "0x608060405234801561001057600080fd5b50336000806101000a81548173ffffffffffffffffffffffffffffffffffffffff021916908373ffffffffffffffffffffffffffffffffffffffff160217905550612ced806100606000396000f3fe608060405234801561001057600080fd5b50600436106100a95760003560e01c80638da5cb5b116100715780638da5cb5b14610228578063a87430ba14610272578063bb9e42471461030c578063ebb5d8ed14610368578063f5074f41146103f4578063fa838e5414610438576100a9565b8063036a1c22146100ae5780632092cb331461011c57806359658c481461017b578063823a71af146101bf57806383197ef01461021e575b600080fd5b6100da600480360360208110156100c457600080fd5b8101908080359060200190929190505050610489565b604051808273ffffffffffffffffffffffffffffffffffffffff1673ffffffffffffffffffffffffffffffffffffffff16815260200191505060405180910390f35b6101246104c5565b6040518080602001828103825283818151815260200191508051906020019060200280838360005b8381101561016757808201518184015260208101905061014c565b505050509050019250505060405180910390f35b6101bd6004803603602081101561019157600080fd5b81019080803573ffffffffffffffffffffffffffffffffffffffff169060200190929190505050610593565b005b6101c76106c4565b6040518080602001828103825283818151815260200191508051906020019060200280838360005b8381101561020a5780820151818401526020810190506101ef565b505050509050019250505060405180910390f35b610226610752565b005b6102306107c4565b604051808273ffffffffffffffffffffffffffffffffffffffff1673ffffffffffffffffffffffffffffffffffffffff16815260200191505060405180910390f35b6102b46004803603602081101561028857600080fd5b81019080803573ffffffffffffffffffffffffffffffffffffffff1690602001909291905050506107e9565b60405180841515151581526020018373ffffffffffffffffffffffffffffffffffffffff1673ffffffffffffffffffffffffffffffffffffffff16815260200182151515158152602001935050505060405180910390f35b61034e6004803603602081101561032257600080fd5b81019080803573ffffffffffffffffffffffffffffffffffffffff16906020019092919050505061084d565b604051808215151515815260200191505060405180910390f35b6103b26004803603608081101561037e57600080fd5b81019080803590602001909291908035906020019092919080359060200190929190803590602001909291905050506109a9565b604051808273ffffffffffffffffffffffffffffffffffffffff1673ffffffffffffffffffffffffffffffffffffffff16815260200191505060405180910390f35b6104366004803603602081101561040a57600080fd5b81019080803573ffffffffffffffffffffffffffffffffffffffff169060200190929190505050610da0565b005b6104876004803603604081101561044e57600080fd5b81019080803573ffffffffffffffffffffffffffffffffffffffff169060200190929190803560ff169060200190929190505050610e12565b005b6002818154811061049657fe5b906000526020600020016000915054906101000a900473ffffffffffffffffffffffffffffffffffffffff1681565b6060600160003373ffffffffffffffffffffffffffffffffffffffff1673ffffffffffffffffffffffffffffffffffffffff16815260200190815260200160002060010180548060200260200160405190810160405280929190818152602001828054801561058957602002820191906000526020600020905b8160009054906101000a900473ffffffffffffffffffffffffffffffffffffffff1673ffffffffffffffffffffffffffffffffffffffff168152602001906001019080831161053f575b5050505050905090565b6000809054906101000a900473ffffffffffffffffffffffffffffffffffffffff1673ffffffffffffffffffffffffffffffffffffffff163373ffffffffffffffffffffffffffffffffffffffff16146105ec57600080fd5b600081905060008173ffffffffffffffffffffffffffffffffffffffff166329c68dc16040518163ffffffff1660e01b8152600401602060405180830381600087803b15801561063b57600080fd5b505af115801561064f573d6000803e3d6000fd5b505050506040513d602081101561066557600080fd5b81019080805190602001909291905050509050428115158373ffffffffffffffffffffffffffffffffffffffff167f25270acf0eab637903a9cd906e32d2ac17ce44db6c743ba5812f2924e84ff8d660405160405180910390a4505050565b6060600280548060200260200160405190810160405280929190818152602001828054801561074857602002820191906000526020600020905b8160009054906101000a900473ffffffffffffffffffffffffffffffffffffffff1673ffffffffffffffffffffffffffffffffffffffff16815260200190600101908083116106fe575b5050505050905090565b6000809054906101000a900473ffffffffffffffffffffffffffffffffffffffff1673ffffffffffffffffffffffffffffffffffffffff163373ffffffffffffffffffffffffffffffffffffffff16146107ab57600080fd5b3373ffffffffffffffffffffffffffffffffffffffff16ff5b6000809054906101000a900473ffffffffffffffffffffffffffffffffffffffff1681565b60016020528060005260406000206000915090508060000160009054906101000a900460ff16908060000160019054906101000a900473ffffffffffffffffffffffffffffffffffffffff16908060000160159054906101000a900460ff16905083565b600060018060008473ffffffffffffffffffffffffffffffffffffffff1673ffffffffffffffffffffffffffffffffffffffff16815260200190815260200160002060000160156101000a81548160ff0219169083151502179055508173ffffffffffffffffffffffffffffffffffffffff167fbafb199a9909a7be73ceeaf6193dc9ea119ef469120d998d5f550140c0b13b54600160008573ffffffffffffffffffffffffffffffffffffffff1673ffffffffffffffffffffffffffffffffffffffff16815260200190815260200160002060000160159054906101000a900460ff164260405180831515151581526020018281526020019250505060405180910390a2600160008373ffffffffffffffffffffffffffffffffffffffff1673ffffffffffffffffffffffffffffffffffffffff16815260200190815260200160002060000160159054906101000a900460ff169050919050565b6000801515600160003373ffffffffffffffffffffffffffffffffffffffff1673ffffffffffffffffffffffffffffffffffffffff16815260200190815260200160002060000160009054906101000a900460ff16151514610a0a57600080fd5b60001515600160003373ffffffffffffffffffffffffffffffffffffffff1673ffffffffffffffffffffffffffffffffffffffff16815260200190815260200160002060000160159054906101000a900460ff16151514610a6a57600080fd5b600073ffffffffffffffffffffffffffffffffffffffff16600160003373ffffffffffffffffffffffffffffffffffffffff1673ffffffffffffffffffffffffffffffffffffffff16815260200190815260200160002060000160019054906101000a900473ffffffffffffffffffffffffffffffffffffffff1673ffffffffffffffffffffffffffffffffffffffff1614610b0257fe5b60018060003373ffffffffffffffffffffffffffffffffffffffff1673ffffffffffffffffffffffffffffffffffffffff16815260200190815260200160002060000160006101000a81548160ff021916908315150217905550600085858585604051610b6e90610f62565b80858152602001848152602001838152602001828152602001945050505050604051809103906000f080158015610ba9573d6000803e3d6000fd5b50905080600160003373ffffffffffffffffffffffffffffffffffffffff1673ffffffffffffffffffffffffffffffffffffffff16815260200190815260200160002060000160016101000a81548173ffffffffffffffffffffffffffffffffffffffff021916908373ffffffffffffffffffffffffffffffffffffffff16021790555060028190806001815401808255809150509060018203906000526020600020016000909192909190916101000a81548173ffffffffffffffffffffffffffffffffffffffff021916908373ffffffffffffffffffffffffffffffffffffffff16021790555050600160003373ffffffffffffffffffffffffffffffffffffffff1673ffffffffffffffffffffffffffffffffffffffff1681526020019081526020016000206001018190806001815401808255809150509060018203906000526020600020016000909192909190916101000a81548173ffffffffffffffffffffffffffffffffffffffff021916908373ffffffffffffffffffffffffffffffffffffffff16021790555050423373ffffffffffffffffffffffffffffffffffffffff168273ffffffffffffffffffffffffffffffffffffffff167fa0c75b76492543c8eafdc7e35272287bd6f229dcf0f6c22429343044718c510860405160405180910390a480915050949350505050565b6000809054906101000a900473ffffffffffffffffffffffffffffffffffffffff1673ffffffffffffffffffffffffffffffffffffffff163373ffffffffffffffffffffffffffffffffffffffff1614610df957600080fd5b8073ffffffffffffffffffffffffffffffffffffffff16ff5b6000809054906101000a900473ffffffffffffffffffffffffffffffffffffffff1673ffffffffffffffffffffffffffffffffffffffff163373ffffffffffffffffffffffffffffffffffffffff1614610e6b57600080fd5b60008290508073ffffffffffffffffffffffffffffffffffffffff1663268f1153836040518263ffffffff1660e01b815260040180826005811115610eac57fe5b60ff168152602001915050602060405180830381600087803b158015610ed157600080fd5b505af1158015610ee5573d6000803e3d6000fd5b505050506040513d6020811015610efb57600080fd5b81019080805190602001909291905050505042826005811115610f1a57fe5b8273ffffffffffffffffffffffffffffffffffffffff167f9ae5127f6d87e374b5901ce23a9467e504811c54c03dda8741ad44a35a36146660405160405180910390a4505050565b611d4980610f708339019056fe60806040526001600c60006101000a81548160ff0219169083151502179055506000600f5560006010556001420160125560006013553480156200004257600080fd5b5060405162001d4938038062001d49833981810160405260808110156200006857600080fd5b8101908080519060200190929190805190602001909291908051906020019092919080519060200190929190505050336000806101000a81548173ffffffffffffffffffffffffffffffffffffffff021916908373ffffffffffffffffffffffffffffffffffffffff16021790555032600160006101000a81548173ffffffffffffffffffffffffffffffffffffffff021916908373ffffffffffffffffffffffffffffffffffffffff1602179055508160058190555083600281905550826006819055508260078190555062000152600554600254620001fa60201b620018071790919060201c565b600381905550620001766006546003546200021760201b62001aba1790919060201c565b60088190555080600b819055504260098190555042600160009054906101000a900473ffffffffffffffffffffffffffffffffffffffff1673ffffffffffffffffffffffffffffffffffffffff167ff9f75c99c0e3522cd19ffc66fd6c94989a3f0821d37d5c5bb176aab904c6335d60405160405180910390a35050505062000231565b6000808284019050838110156200020d57fe5b8091505092915050565b6000808284816200022457fe5b0490508091505092915050565b611b0880620002416000396000f3fe6080604052600436106100e85760003560e01c8063590e1ae31161008a578063e8b5e51f11610059578063e8b5e51f146102ee578063efd475ab146102f8578063f06817cf1461030f578063f5074f41146103be576100e8565b8063590e1ae31461023a57806383197ef0146102515780638da5cb5b14610268578063d85da7b6146102bf576100e8565b806329c68dc1116100c657806329c68dc1146101d35780633ccfd60b14610202578063402d88831461021957806343c14b2214610223576100e8565b806312065fe0146100ed578063268f11531461011857806328fd10d71461016a575b600080fd5b3480156100f957600080fd5b5061010261040f565b6040518082815260200191505060405180910390f35b34801561012457600080fd5b506101546004803603602081101561013b57600080fd5b81019080803560ff169060200190929190505050610417565b6040518082815260200191505060405180910390f35b34801561017657600080fd5b506101b96004803603602081101561018d57600080fd5b81019080803573ffffffffffffffffffffffffffffffffffffffff1690602001909291905050506104e2565b604051808215151515815260200191505060405180910390f35b3480156101df57600080fd5b506101e8610502565b604051808215151515815260200191505060405180910390f35b34801561020e57600080fd5b506102176105db565b005b6102216107b8565b005b34801561022f57600080fd5b50610238610aa7565b005b34801561024657600080fd5b5061024f610c7f565b005b34801561025d57600080fd5b50610266610f53565b005b34801561027457600080fd5b5061027d610fc5565b604051808273ffffffffffffffffffffffffffffffffffffffff1673ffffffffffffffffffffffffffffffffffffffff16815260200191505060405180910390f35b3480156102cb57600080fd5b506102d4610fea565b604051808215151515815260200191505060405180910390f35b6102f661118f565b005b34801561030457600080fd5b5061030d61147b565b005b34801561031b57600080fd5b506103246116f1565b604051808c73ffffffffffffffffffffffffffffffffffffffff1673ffffffffffffffffffffffffffffffffffffffff1681526020018b81526020018a815260200189815260200188815260200187815260200186815260200185815260200184600581111561039057fe5b60ff168152602001831515151581526020018281526020019b50505050505050505050505060405180910390f35b3480156103ca57600080fd5b5061040d600480360360208110156103e157600080fd5b81019080803573ffffffffffffffffffffffffffffffffffffffff16906020019092919050505061177e565b005b600047905090565b60008060009054906101000a900473ffffffffffffffffffffffffffffffffffffffff1673ffffffffffffffffffffffffffffffffffffffff163373ffffffffffffffffffffffffffffffffffffffff161461047257600080fd5b81600c60016101000a81548160ff0219169083600581111561049057fe5b021790555042600c60019054906101000a900460ff1660058111156104b157fe5b7faaae373901e745122c2e0925ad006227969c6cd190b7d5ea2fb7fdbd1d955b3560405160405180910390a3919050565b600d6020528060005260406000206000915054906101000a900460ff1681565b60008060009054906101000a900473ffffffffffffffffffffffffffffffffffffffff1673ffffffffffffffffffffffffffffffffffffffff163373ffffffffffffffffffffffffffffffffffffffff161461055d57600080fd5b600c60009054906101000a900460ff1615600c60006101000a81548160ff02191690831515021790555042600c60009054906101000a900460ff1615157f160914ea27c60aa29a5f3a69d74e6069869de36e38939de1e0a66b921d8623d260405160405180910390a3600c60009054906101000a900460ff16905090565b60011515600c60009054906101000a900460ff161515146105fb57600080fd5b600160009054906101000a900473ffffffffffffffffffffffffffffffffffffffff1673ffffffffffffffffffffffffffffffffffffffff163373ffffffffffffffffffffffffffffffffffffffff161461065557600080fd5b60025447101561066457600080fd5b60058081111561067057fe5b600c60019054906101000a900460ff16600581111561068b57fe5b141561069657600080fd5b6001600c60016101000a81548160ff021916908360058111156106b557fe5b021790555042600c60019054906101000a900460ff1660058111156106d657fe5b7faaae373901e745122c2e0925ad006227969c6cd190b7d5ea2fb7fdbd1d955b3560405160405180910390a342473373ffffffffffffffffffffffffffffffffffffffff167f20734f14d107b526674905e470e35d0a474f9fb996a7bdb034c839c8894524e660405160405180910390a46000600160009054906101000a900473ffffffffffffffffffffffffffffffffffffffff1690508073ffffffffffffffffffffffffffffffffffffffff166108fc479081150290604051600060405180830381858888f193505050501580156107b4573d6000803e3d6000fd5b5050565b600160009054906101000a900473ffffffffffffffffffffffffffffffffffffffff1673ffffffffffffffffffffffffffffffffffffffff163373ffffffffffffffffffffffffffffffffffffffff161461081257600080fd5b6001600581111561081f57fe5b600c60019054906101000a900460ff16600581111561083a57fe5b1461084457600080fd5b60006007541161085357600080fd5b60085434101561086257600080fd5b6003546004541061086f57fe5b6007600081548092919060019003919050555042600a819055506000809050600854341115610963576108ad600854346117f090919063ffffffff16565b90506108c281346117f090919063ffffffff16565b600854146108cc57fe5b348111156108d657fe5b3373ffffffffffffffffffffffffffffffffffffffff166108fc829081150290604051600060405180830381858888f1935050505015801561091c573d6000803e3d6000fd5b5042813373ffffffffffffffffffffffffffffffffffffffff167f5c9874487a2258c6bd6dc39a2cfcf7ea944b50b79d9a7152668779687b2ebd8d60405160405180910390a45b4261097782346117f090919063ffffffff16565b3373ffffffffffffffffffffffffffffffffffffffff167f350a09487d622378c6efbda255f996387696319f803a2e53eee64f7aa70be85a60405160405180910390a46109e16109d082346117f090919063ffffffff16565b60045461180790919063ffffffff16565b6004819055506003546004541415610aa457423373ffffffffffffffffffffffffffffffffffffffff167f25630de45a38a90cbca3a2eb35a8197e51b56d6d912581711e5e3773fe77cabc60405160405180910390a36002600c60016101000a81548160ff02191690836005811115610a5657fe5b021790555042600c60019054906101000a900460ff166005811115610a7757fe5b7faaae373901e745122c2e0925ad006227969c6cd190b7d5ea2fb7fdbd1d955b3560405160405180910390a35b50565b60011515600c60009054906101000a900460ff16151514610ac757600080fd5b601254421015610ad657600080fd5b60006005811115610ae357fe5b600c60019054906101000a900460ff166005811115610afe57fe5b14610b0857600080fd5b60011515600d60003373ffffffffffffffffffffffffffffffffffffffff1673ffffffffffffffffffffffffffffffffffffffff16815260200190815260200160002060009054906101000a900460ff16151514610b6557600080fd5b60001515601160003373ffffffffffffffffffffffffffffffffffffffff1673ffffffffffffffffffffffffffffffffffffffff16815260200190815260200160002060009054906101000a900460ff16151514610bc257600080fd5b60106000815480929190600101919050555060011515601160003373ffffffffffffffffffffffffffffffffffffffff1673ffffffffffffffffffffffffffffffffffffffff16815260200190815260200160002060009054906101000a90505050423373ffffffffffffffffffffffffffffffffffffffff167fd7173ce7e4ce6f6d075259ac1a467ab8290db175a2cee8587a663c006b97e12960405160405180910390a3601054600f541415610c7d57610c7c611823565b5b565b60011515600c60009054906101000a900460ff16151514610c9f57600080fd5b60011515600d60003373ffffffffffffffffffffffffffffffffffffffff1673ffffffffffffffffffffffffffffffffffffffff16815260200190815260200160002060009054906101000a900460ff16151514610cfc57600080fd5b60046005811115610d0957fe5b600c60019054906101000a900460ff166005811115610d2457fe5b14610d2e57600080fd5b600e60003373ffffffffffffffffffffffffffffffffffffffff1673ffffffffffffffffffffffffffffffffffffffff16815260200190815260200160002054471015610d7757fe5b3373ffffffffffffffffffffffffffffffffffffffff166108fc600e60003373ffffffffffffffffffffffffffffffffffffffff1673ffffffffffffffffffffffffffffffffffffffff168152602001908152602001600020549081150290604051600060405180830381858888f19350505050158015610dfc573d6000803e3d6000fd5b5042600e60003373ffffffffffffffffffffffffffffffffffffffff1673ffffffffffffffffffffffffffffffffffffffff168152602001908152602001600020543373ffffffffffffffffffffffffffffffffffffffff167f71e252e33f19f0223f47f27d00910548d26488b9b55cb5b410b75e273152f8d660405160405180910390a46000471415610f51576000600c60006101000a81548160ff02191690831515021790555042600c60009054906101000a900460ff1615157f160914ea27c60aa29a5f3a69d74e6069869de36e38939de1e0a66b921d8623d260405160405180910390a36003600c60016101000a81548160ff02191690836005811115610f0357fe5b021790555042600c60019054906101000a900460ff166005811115610f2457fe5b7faaae373901e745122c2e0925ad006227969c6cd190b7d5ea2fb7fdbd1d955b3560405160405180910390a35b565b6000809054906101000a900473ffffffffffffffffffffffffffffffffffffffff1673ffffffffffffffffffffffffffffffffffffffff163373ffffffffffffffffffffffffffffffffffffffff1614610fac57600080fd5b3373ffffffffffffffffffffffffffffffffffffffff16ff5b6000809054906101000a900473ffffffffffffffffffffffffffffffffffffffff1681565b600060011515600c60009054906101000a900460ff1615151461100c57600080fd5b60011515600d60003373ffffffffffffffffffffffffffffffffffffffff1673ffffffffffffffffffffffffffffffffffffffff16815260200190815260200160002060009054906101000a900460ff1615151461106957600080fd5b60001515601460003373ffffffffffffffffffffffffffffffffffffffff1673ffffffffffffffffffffffffffffffffffffffff16815260200190815260200160002060009054906101000a900460ff161515146110c657600080fd5b60136000815480929190600101919050555060011515601460003373ffffffffffffffffffffffffffffffffffffffff1673ffffffffffffffffffffffffffffffffffffffff16815260200190815260200160002060009054906101000a90505050423373ffffffffffffffffffffffffffffffffffffffff167f1db613004119dde2a638b639fba9960c0e6064ee7c2d06f300e41c78920ed6dc60405160405180910390a3601354600f54141561118757611180611891565b905061118c565b600190505b90565b6000600581111561119c57fe5b600c60019054906101000a900460ff1660058111156111b757fe5b146111c157600080fd5b60008090506002544710611310576111e4600254476117f090919063ffffffff16565b90506111f981476117f090919063ffffffff16565b6002541461120357fe5b3481111561120d57fe5b60008111156112a3573373ffffffffffffffffffffffffffffffffffffffff166108fc829081150290604051600060405180830381858888f1935050505015801561125c573d6000803e3d6000fd5b5042813373ffffffffffffffffffffffffffffffffffffffff167f566803f6e271b911c84f87631bcd310d6a6510bf8882577a96fc76975703e43160405160405180910390a45b6001600c60016101000a81548160ff021916908360058111156112c257fe5b021790555042600c60019054906101000a900460ff1660058111156112e357fe5b7faaae373901e745122c2e0925ad006227969c6cd190b7d5ea2fb7fdbd1d955b3560405160405180910390a35b6001600d60003373ffffffffffffffffffffffffffffffffffffffff1673ffffffffffffffffffffffffffffffffffffffff16815260200190815260200160002060006101000a81548160ff021916908315150217905550600f600081548092919060010191905055506113de61139082346117f090919063ffffffff16565b600e60003373ffffffffffffffffffffffffffffffffffffffff1673ffffffffffffffffffffffffffffffffffffffff1681526020019081526020016000205461180790919063ffffffff16565b600e60003373ffffffffffffffffffffffffffffffffffffffff1673ffffffffffffffffffffffffffffffffffffffff168152602001908152602001600020819055504261143582346117f090919063ffffffff16565b3373ffffffffffffffffffffffffffffffffffffffff167f1b0969ce7f5b05c5e0969329a05cdbd7e2e2f6cee33ba26fd6e6bbcff82312cd60405160405180910390a450565b60011515600c60009054906101000a900460ff1615151461149b57600080fd5b60011515600d60003373ffffffffffffffffffffffffffffffffffffffff1673ffffffffffffffffffffffffffffffffffffffff16815260200190815260200160002060009054906101000a900460ff161515146114f857600080fd5b6002600581111561150557fe5b600c60019054906101000a900460ff16600581111561152057fe5b1461152a57600080fd5b6000600e60003373ffffffffffffffffffffffffffffffffffffffff1673ffffffffffffffffffffffffffffffffffffffff168152602001908152602001600020541161157657600080fd5b6000600f546003548161158557fe5b0490508047101561159257fe5b3373ffffffffffffffffffffffffffffffffffffffff166108fc829081150290604051600060405180830381858888f193505050501580156115d8573d6000803e3d6000fd5b5042813373ffffffffffffffffffffffffffffffffffffffff167f052f6685df2f773f854b17db1d82e2352e222010daaf8175761f02ef8782c40360405160405180910390a460004714156116ee576000600c60006101000a81548160ff02191690831515021790555042600c60009054906101000a900460ff1615157f160914ea27c60aa29a5f3a69d74e6069869de36e38939de1e0a66b921d8623d260405160405180910390a36003600c60016101000a81548160ff021916908360058111156116a057fe5b021790555042600c60019054906101000a900460ff1660058111156116c157fe5b7faaae373901e745122c2e0925ad006227969c6cd190b7d5ea2fb7fdbd1d955b3560405160405180910390a35b50565b6000806000806000806000806000806000600160009054906101000a900473ffffffffffffffffffffffffffffffffffffffff16600b54600254600654600854600754600554600354600c60019054906101000a900460ff16600c60009054906101000a900460ff16479a509a509a509a509a509a509a509a509a509a509a50909192939495969798999a565b6000809054906101000a900473ffffffffffffffffffffffffffffffffffffffff1673ffffffffffffffffffffffffffffffffffffffff163373ffffffffffffffffffffffffffffffffffffffff16146117d757600080fd5b8073ffffffffffffffffffffffffffffffffffffffff16ff5b6000828211156117fc57fe5b818303905092915050565b60008082840190508381101561181957fe5b8091505092915050565b6004600c60016101000a81548160ff0219169083600581111561184257fe5b021790555042600c60019054906101000a900460ff16600581111561186357fe5b7faaae373901e745122c2e0925ad006227969c6cd190b7d5ea2fb7fdbd1d955b3560405160405180910390a3565b60008060606000809054906101000a900473ffffffffffffffffffffffffffffffffffffffff1673ffffffffffffffffffffffffffffffffffffffff16600160009054906101000a900473ffffffffffffffffffffffffffffffffffffffff16604051602401808273ffffffffffffffffffffffffffffffffffffffff1673ffffffffffffffffffffffffffffffffffffffff1681526020019150506040516020818303038152906040527fbb9e4247000000000000000000000000000000000000000000000000000000007bffffffffffffffffffffffffffffffffffffffffffffffffffffffff19166020820180517bffffffffffffffffffffffffffffffffffffffffffffffffffffffff83818316178352505050506040518082805190602001908083835b602083106119dd57805182526020820191506020810190506020830392506119ba565b6001836020036101000a0380198251168184511680821785525050505050509050019150506000604051808303816000865af19150503d8060008114611a3f576040519150601f19603f3d011682016040523d82523d6000602084013e611a44565b606091505b509150915042821515600160009054906101000a900473ffffffffffffffffffffffffffffffffffffffff1673ffffffffffffffffffffffffffffffffffffffff167fc1bb1d1e99d1e8d2705ba85717226a3fd9a86e4de2284b00dfe6f33538d5249f60405160405180910390a4819250505090565b600080828481611ac657fe5b049050809150509291505056fea265627a7a72315820efd5ee0b3d4ff4b70297a10a31727070c30d635168ae56905c452f6bf1a812f964736f6c63430005100032a265627a7a72315820fdb88b3f9ae0d79eeab80d1f6439548094b50810ab62e0f3a0d46a001208296f64736f6c63430005100032",
  "source": "pragma solidity ^0.5.16;\n\nimport './common/SafeMath.sol';\nimport './common/Destructible.sol';\nimport './Credit.sol';\n\n/** @title Peer to peer lending contract.\n  * Inherits the Ownable and Destructible contracts.\n  */\ncontract PeerToPeerLending is Destructible {\n    /** @dev Usings */\n    // Using SafeMath for our calculations with uints.\n    using SafeMath for uint;\n\n    /** @dev State variables */\n\n    // User structure\n    struct User {\n        // Is the user currently credited.\n        bool credited;\n\n        // The adress of the active credit.\n        address activeCredit;\n\n        // Is the user marked as fraudlent.\n        bool fraudStatus;\n\n        // All user credits.\n        address[] allCredits;\n    }\n\n    // We store all users in a mapping.\n    mapping(address => User) public users;\n\n    // Array of all credits adresses.\n    address[] public credits;\n\n    /** @dev Events */\n    event LogCreditCreated(address indexed _address, address indexed _borrower, uint indexed timestamp);\n    event LogCreditStateChanged(address indexed _address, Credit.State indexed state, uint indexed timestamp);\n    event LogCreditActiveChanged(address indexed _address, bool indexed active, uint indexed timestamp);\n    event LogUserSetFraud(address indexed _address, bool fraudStatus, uint timestamp);\n\n    /** @dev Constructor */\n    constructor() public {\n\n    }\n\n    /** @dev Credit application function.\n      * @param requestedAmount Requested funding amount in wei.\n      * @param repaymentsCount Requested repayments count.\n      * @param creditDescription The description of the funding.\n      * @return credit Return credit address.\n      * The function publishesh another contract which is the credit contract.\n      * The owner of the new contract is the present contract.\n      */\n    function applyForCredit(uint requestedAmount, uint repaymentsCount, uint interest, bytes32 creditDescription) public returns(address _credit) {\n        // The user should not have been credited;\n        require(users[msg.sender].credited == false);\n\n        // THe user should not be marked as fraudlent.\n        require(users[msg.sender].fraudStatus == false);\n\n        // Assert there is no active credit for the user.\n        assert(users[msg.sender].activeCredit == address(0x0));\n\n        // Mark the user as credited. Prevent from reentrancy.\n        users[msg.sender].credited = true;\n\n        // Create a new credit contract with the given parameters.\n        Credit credit = new Credit(requestedAmount, repaymentsCount, interest, creditDescription);\n\n        // Set the user's active credit contract.\n        users[msg.sender].activeCredit = address(credit);\n\n        // Add the credit contract to our list with contracts.\n        credits.push(address(credit));\n\n        // Add the credit to the user's profile.\n        users[msg.sender].allCredits.push(address(credit));\n\n        // Log the credit creation event.\n        emit LogCreditCreated(address(credit), msg.sender, block.timestamp);\n\n        // Return the address of the newly created credit contract.\n        return address(credit);\n    }\n\n    /** @dev Get the list with all credits.\n      * @return credits Returns list of credit addresses.\n      */\n    function getCredits() public view returns (address[] memory) {\n        return credits;\n    }\n\n    /** @dev Get all users credits.\n      * @return users[msg.sender].allCredits Return user credits.\n      */\n    function getUserCredits() public view returns (address[] memory) {\n        return users[msg.sender].allCredits;\n    }\n\n    /** @dev Sets user fraudlent status true.\n     * @param _borrower The user's address.\n     * @return users[_borrower].fraudStatus Boolean of the new fraud status.\n     */\n    function setFraudStatus(address _borrower) external returns (bool) {\n        // Update user fraud status.\n        users[_borrower].fraudStatus = true;\n\n        // Log fraud status.\n        emit LogUserSetFraud(_borrower, users[_borrower].fraudStatus, block.timestamp);\n\n        return users[_borrower].fraudStatus;\n    }\n\n    /** @dev Function to switch active state of a credit.\n      * @param _credit The credit's address.\n      * @param state New state.\n      */\n    function changeCreditState (Credit _credit, Credit.State state) public onlyOwner {\n        // Call credit contract changeStage.\n        Credit credit = Credit(_credit);\n        credit.changeState(state);\n\n        // Log state change.\n        emit LogCreditStateChanged(address(credit), state, block.timestamp);\n    }\n\n    /** @dev Function to toggle active state of credit contract.\n      * @param _credit The credit's address.\n      */\n    function changeCreditState (Credit _credit) public onlyOwner {\n        // Call credit contract toggleActive method.\n        Credit credit = Credit(_credit);\n        bool active = credit.toggleActive();\n\n        // Log state change.\n        emit LogCreditActiveChanged(address(credit), active, block.timestamp);\n    }\n}",
  "sourcePath": "/Users/lamdaoletung/src/p2p-lending/smart-contracts/contracts/PeerToPeerLending.sol",
  "compiler": {
    "name": "solc",
    "version": "0.5.16+commit.9c3226ce.Emscripten.clang"
  },
  "schemaVersion": "3.4.12",
  "updatedAt": "2023-02-19T02:03:34.714Z",
  "networkType": "ethereum",
  "devdoc": {
    "methods": {
      "applyForCredit(uint256,uint256,uint256,bytes32)": {
        "details": "Credit application function.",
        "params": {
          "creditDescription": "The description of the funding.",
          "repaymentsCount": "Requested repayments count.",
          "requestedAmount": "Requested funding amount in wei."
        },
        "return": "credit Return credit address. The function publishesh another contract which is the credit contract. The owner of the new contract is the present contract."
      },
      "changeCreditState(address)": {
        "details": "Function to toggle active state of credit contract.",
        "params": {
          "_credit": "The credit's address."
        }
      },
      "changeCreditState(address,uint8)": {
        "details": "Function to switch active state of a credit.",
        "params": {
          "_credit": "The credit's address.",
          "state": "New state."
        }
      },
      "constructor": {
        "details": "Constructor "
      },
      "getCredits()": {
        "details": "Get the list with all credits.",
        "return": "credits Returns list of credit addresses."
      },
      "getUserCredits()": {
        "details": "Get all users credits.",
        "return": "users[msg.sender].allCredits Return user credits."
      },
      "setFraudStatus(address)": {
        "details": "Sets user fraudlent status true.",
        "params": {
          "_borrower": "The user's address."
        },
        "return": "users[_borrower].fraudStatus Boolean of the new fraud status."
      }
    },
    "title": "Peer to peer lending contract. Inherits the Ownable and Destructible contracts."
  },
  "userdoc": {
    "methods": {}
  }
}